:1000000000308A001A280000223084008313000880
:10001000031917280230F800F701F70B0D28F80B29
:100020000C289730F700F70B1328800B0A288A1149
:100030000A123B2803081F3983000C3083169900ED
:10004000A2309800903083129800A10183161F14EB
:100050009F141F159F1107309C0083138312A0016A
:10006000831605148312051C4328A108031D42288A
:100070001430A2000428200F3F28A0014028A00A25
:100080000130A1004428A10120080C1E4528990038
:0400900030286300B1
:02400E00313F40
:00000001FF
;PIC16F877A
;CRC=EB36  CREATED="15-may.-23 17:03"
